:020000040800F2
:10000000F004002001010008BB1100083B110008AA
:10001000B9110008D50200085916000800000000B8
:10002000000000000000000000000000FF120008B7
:100030001B03000800000000FD1200080113000867
:100040001B0100081B0100081B0100081B01000820
:100050001B0100081B0100081B0100081B01000810
:100060001B0100081B0100081B0100081B01000800
:100070001B0100081B010008D9020008E502000866
:100080001B0100081B0100081B0100081B010008E0
:100090001B0100081B0100081B0100081B010008D0
:1000A0001B0100081B0100081B0100081B010008C0
:1000B0001B0100081B0100081B0100081B010008B0
:1000C0001B0100081B0100081B0100081B010008A0
:1000D0001B0100081B0100081B0100081B01000890
:1000E0001B0100081B0100081B010008DFF80CD0F1
:1000F00000F0DEF8004800477D160008F0040020FC
:100100000648804706480047FEE7FEE7FEE7FEE7B1
:10011000FEE7FEE7FEE7FEE7FEE7FEE77D130008E9
:10012000ED000008F0B480EA0102D40F4200B2EB07
:10013000410F02D20246084611464A0042D0C30D82
:10014000DDB2C1F3C752AD1A202D35DAC1F3160165
:1001500041F4000204B15242C5F1200602FA06F150
:100160002A411044B3EBD05F23D0C4B1012DA0EBE2
:10017000C35009DCF0BC4FF0004202EAC352DBB2CC
:1001800000F5000000F066B8400000F1807000EB60
:10019000C350A0F1807040EAD170490009E04908DD
:1001A00041EAC071A0EBC35000F50000400800EB2D
:1001B000C350F0BC00F045B86142012202EB41019E
:1001C000001BF6E7F0BC704781F00041AAE780F021
:1001D0000040A7E780EA010210B502F000434000AA
:1001E00022D04A001FD0010E01EB1261C0F356006D
:1001F000C2F3560240F4000042F40002A0FB0220C9
:1002000000047F39140400D0401C50EA124001D48D
:100210004000491EC2B20C0604EBD010401C40083E
:10022000802A02D003E0002010BD20F00100002948
:1002300000DA0020184310BD96230022114600F07A
:1002400009B80029A8BF7047401C490008BF20F02A
:100250000100704710B4B0FA80FC00FA0CF050EACC
:10026000010404BF10BC704749B1CCF1200421FA4D
:1002700004F411FA0CF118BF012121430843A3EB48
:100280000C01CB1D4FEA00614FEA102042BF002055
:1002900010BC704700EBC35010440029A4BF10BC31
:1002A0007047401C490008BF20F0010010BC704797
:1002B000064C074D06E0E06840F0010394E80700B3
:1002C00098471034AC42F6D3FFF714FF9817000894
:1002D000B8170008FEE70000014800F037B800003A
:1002E000AC000020014800F031B800006800002098
:1002F00030B590F840500124AC40C56B6C60046888
:1003000063604368102B036803D099600068C26083
:1003100030BD9A600068C16030BD704701680A68EE
:1003200022F00E020A6001680A6822F001020A60E7
:1003300090F84020C36B012101FA02F25A6080F864
:100340002110002180F82010084670472DE9F05F49
:10035000C16B0C6801680B68D0F840C0042202FA37
:100360000CF2494DDFF824A1494E4A4FDFF828B17D
:10037000DFF828E122422CD05A072AD50A689206D3
:1003800003D40A6822F004020A600168A94201D17C
:10039000042219E0514501D1402215E0B14202D1B9
:1003A0004FF4806210E0B94202D14FF480420BE07A
:1003B000594502D14FF4802206E0714502D14FF435
:1003C000800201E04FF080622F4908394A60C16A1B
:1003D0003BE04FF0020808FA0CF818EA040F4FF05F
:1003E00000094FF0010235D05FEA837832D50B68FF
:1003F0009B0605D40B6823F00A030B6080F82120CC
:100400000168A94201D1022219E0514501D12022FF
:1004100015E0B14202D14FF4007210E0B94202D1AE
:100420004FF400520BE0594502D14FF4003206E080
:10043000714502D14FF4001201E04FF000721249F1
:1004400008394A6080F82090816A00291AD0BDE8F6
:10045000F05F0847082505FA0CF5254212D01B0766
:1004600010D50B6823F00E030B6090F84010C36B9F
:1004700002FA01F15960826380F8212080F820900F
:10048000016BE2E7BDE8F09F080002401C0002405B
:100490003000024044000240580002406C0002401C
:1004A00030B548B308C8154914221944B1FBF2F11C
:1004B0008900C16312498163022141771A6843F6BA
:1004C000F0718A43D0E900142143D0E902452C435E
:1004D0002143046921434469214384692143114331
:1004E0001960002141628162C1620163416301229E
:1004F00042770177084630BD012030BDF8FFFDBFCF
:100500000000024070B5044690F820000025012844
:100510000CD0012084F8200094F821600020012EE6
:1005200006D084F820000225284670BD022070BD48
:10053000022684F82160A0632068066826F0010680
:1005400006602046FFF7D4FEE06A002820680168B4
:1005500002D041F00E0106E021F0040101602068A4
:10056000016841F00A0101602068016841F0010161
:100570000160D9E770B5044600F0F6F80546601C46
:1005800002D004480078044400F0EEF8401BA0427A
:10059000FAD370BD180000202DE9F84FDFF890A1C4
:1005A00000220AF1040B144601274FF00F090BF14A
:1005B000040E00BF0B6807FA04F52B40AB4274D160
:1005C000DFF870C14E68A6EB0C0866452BD00DDC39
:1005D000032E34D005DC36B3012E19D0022E2FD1D4
:1005E0001BE0112E16D0122E2AD119E0B8F5881F63
:1005F00019D006DCB8F5803F15D0B8F5801F1FD1A3
:1006000011E0B8F5001F0ED0B8F5041F18D10AE0AC
:10061000CA6815E0CA68121D12E0CA6808320FE005
:10062000CA680C320CE08A682AB1012A4FF008022D
:1006300003D0456104E0042202E0056100E00022ED
:10064000FF2B01D8064601E000F104064FEA8405BD
:1006500001D9A5F12005D6F800C009FA05F82CEA61
:10066000080C02FA05F54CEA050CC6F800C04D6806
:10067000ED0057D5304DAE6946F00106AE61AD696B
:1006800024F0030605F0010500952C4D06EB050C42
:10069000DCF80850A6074FEA167809FA08F6B543C1
:1006A000274EB04202D1002610E03BE0254EB0427A
:1006B00001D101260AE0244EB04201D1022605E014
:1006C000224EB04201D1032600E0042606FA08F6C5
:1006D0002E43CCF808604D68DAF80060ED0355460B
:1006E00001D51E4300E09E432E604D68DBF800609C
:1006F000AD035D4601D51E4300E09E432E604D686C
:10070000DEF80060ED02754601D51E4300E09E4311
:100710002E604D68AD020E4D2E6801D51E4300E0DF
:100720009E432E60641C102CFFF444AFBDE8F88F8C
:1007300000040140000011100010024000000140C0
:1007400000080140000C014000100140001401406D
:100750000C040140C2684A40C26070470AB101619E
:1007600070470904FBE700000148806870470000FB
:1007700018000020024881680278114481607047A7
:1007800018000020074810B5016841F01001016011
:10079000032000F09DF8002000F006F800F024F897
:1007A000002010BD0020024070B50D4D04464FF4EE
:1007B0007A712878B1FBF0F00A490968B1FBF0F0D2
:1007C00000F02DFB48B9102C07D200222146501E04
:1007D00000F05EF800206C6070BD012070BD00006C
:1007E0001800002024000020214808B5816941F04C
:1007F00001018161816901F001010091C16941F04C
:100800008051C161C06900F080500090032000F069
:100810005FF8002211466FF00B0000F039F800225B
:1008200011466FF00A0000F033F8002211466FF015
:10083000090000F02DF800221146501F00F028F8A2
:1008400000221146101F00F023F800221146901ECE
:1008500000F01EF800221146501E00F019F805485D
:10086000416821F0E06141F00071416008BD000085
:10087000001002400000014000F01F0201219140E1
:100880004009800000F1E020C0F80011704700002E
:10089000F0B40E4B1B680C46C3F30223C3F10705EB
:1008A000042D00D90425191D072901D2002300E0D9
:1008B000DB1E012606FA05F1491E214099409E40A3
:1008C000761E16403143F0BC00F078BC0CED00E021
:1008D000064900F0070208684FF6FF03184040EA97
:1008E0000220034A10430860704700000CED00E04E
:1008F0000000FA052DE9F047DFF83C8105460E4679
:10090000D8F8000000F00700B0420CD2D8F8001070
:1009100021F007013143C8F80010D8F8000000F0BA
:100920000700B04263D12878444C800705D5606841
:10093000A96820F0F000084360602878C00745D01F
:100940006868012816D02168022816D08907002976
:100950004DDA616821F0030101436160FFF704FF94
:100960006968074641F2883001290FD00229814683
:1009700019D027E021688903E9E78901E7E700BF8B
:10098000FFF7F2FEC11B494501D918E081466068B6
:10099000C0F381000128F3D118E000BFFFF7E4FEA7
:1009A000C11B49450BD86068C0F381000228F5D10E
:1009B0000CE000BFFFF7D8FEC11B494502D9032058
:1009C000BDE8F087606810F00C0FF3D1D8F8001084
:1009D000404601F00701B1420BD9016821F007013F
:1009E00031430160006800F00700B04201D00120EF
:1009F000E6E72878400705D56068E96820F4E060FC
:100A0000084360602878000706D56068296920F4EB
:100A1000605040EAC100606000F03CF86168084A3C
:100A2000C1F30311515CC840064908600020FFF77C
:100A3000BBFE0020C4E7000000200240001002407E
:100A4000801700082400002001480068704700005B
:100A5000240000200448054900684968044AC1F39D
:100A60000221515CC8407047240000200010024061
:100A7000901700080448054900684968044AC1F312
:100A8000C221515CC8407047240000200010024081
:100A90009017000812A185B00FC98DE80F0014A0AF
:100AA000144A006804905168134801F00C03042BA9
:100AB00010D0082B0ED1C1F38343C9031DF80300E6
:100AC0000AD5516804AAC1F34041515C0A4A504317
:100AD000B0FBF1F005B0704708494843FAE7000061
:100AE00002030405060708090A0B0C0D0E0F10106F
:100AF000010200000010024000127A0000093D00CF
:100B00002DE9F84F04460078B94DC00748D0686811
:100B1000C0F38100012807D06868C0F38100022873
:100B200009D16868C00306D52868800338D5606895
:100B300000286FD034E06068B0F5803F0BD010B172
:100B4000B0F5A02F11D0286820F4803028602868E4
:100B500020F4802002E0286840F48030286060683B
:100B600088B1FFF701FE064609E0286840F48020BE
:100B70002860F0E7FFF7F8FD801B642875D8286827
:100B80008003F7D50CE0FFF7EFFD064605E000BF58
:100B9000FFF7EAFD801B6428F0D828688003F7D4AB
:100BA0002078944E80074FF001094FF000083BD5A4
:100BB000686810F00C0F07D06868C0F38100022845
:100BC00009D16868C00306D42868800714D5206955
:100BD00001281FD110E02069B0B1C6F80090FFF7DE
:100BE000C3FD074605E000BFFFF7BEFDC01B02289E
:100BF000C4D828688007F7D52868616920F0F80014
:100C000040EAC10028600FE0C6F80080FFF7ACFDA5
:100C1000074606E0E9E000BFFFF7A6FDC01B02287B
:100C200023D828688007F7D4207800072CD572488D
:100C3000A169D9B1C0F80090FFF796FD074604E01E
:100C4000FFF792FDC01B02280FD8686A8007F7D50E
:100C50006A484FF4FA510068B0FBF1F0009000BF11
:100C60000098411E0091FAD20EE080E0C0F80080AA
:100C7000FFF77AFD074604E0FFF776FDC01B022868
:100C800075D8686A8007F7D42078400760D5E8698E
:100C90000027C00008D4E86940F08050E861E869A6
:100CA000012700F08050009055480168C90513D411
:100CB0000168834641F480710160FFF755FD82466B
:100CC00006E000BFFFF750FDA0EB0A0064284ED8F5
:100CD000DBF80000C005F5D5E06801280AD008B1AE
:100CE000052813D0286A20F001002862286A20F025
:100CF000040002E0286A40F001002862E06841F246
:100D0000883B98B1FFF730FD82460BE0286A40F03F
:100D100004002862EEE700BFFFF726FDA0EB0A0102
:100D200059455AD8286A8007F6D50CE0FFF71CFD14
:100D3000824605E0FFF718FDA0EB0A0159454CD8A3
:100D4000286A8007F6D41FB1E86920F08050E86176
:100D5000E06988B36968C1F38101022945D002289E
:100D6000C6F8608004D0FFF7FFFC044638E034E0AA
:100D7000FFF7FAFC074604E0FFF7F6FCC01B022869
:100D80002BD828688001F7D4206AB0F5803F05D1C0
:100D90006868A16820F4003008436860D4E908015D
:100DA0000843696821F4741108436860C6F86090CC
:100DB000FFF7DAFC044606E015E000BFFFF7D4FCBD
:100DC000001B022809D828688001F7D50BE000BF76
:100DD000FFF7CAFC001B022802D90320BDE8F88FE8
:100DE00028688001F4D40020F8E70120F6E700002D
:100DF00000100240000042428004424224000020D1
:100E0000007000404FF0E0210428086903D020F072
:100E100004000861704740F00400FAE7704710B51D
:100E2000401EB0F1807F01D3012010BD4FF0E024BF
:100E300060610F21601700F0C1F90020A061072058
:100E40002061002010BD10B5FFF7E8FF10BD10B500
:100E500004460068416994F83920C1F3C011212A81
:100E60000BD151B1416921F080014161206B08B182
:100E7000FFF754FA204600F0FBFA2068416994F825
:100E80003A20C1F38011222A0BD151B1416921F0DE
:100E900040014161606B08B1FFF740FA204600F065
:100EA000D9FA002010BD704770B5040004D094F842
:100EB0003900002510B106E0012070BD84F83850DB
:100EC000204600F023F8242084F839002068C16807
:100ED00021F40051C160204600F0D4FA2068016975
:100EE00021F4904101612068416921F02A014161AA
:100EF0002068C16841F40051C160E563202084F896
:100F0000390084F83A00002070BD0000F0B50646B4
:100F10000068274985B0884247D12648816941F455
:100F2000804181618069244D00F4804004904FF439
:100F3000007000900220019003200390694628462B
:100F4000FFF72AFB00242815CDE90004694628464E
:100F50000294FFF721FB1A4D18488027C5E90004C9
:100F6000C5E902472C616C61AC612846EC61FFF772
:100F700097FA18B17E2113A000F06FFB75636E62C3
:100F80000E48174D143801C5102091C5144845F876
:100F900010496C61AC61EC61FFF782FA18B18E21E7
:100FA00008A000F05AFB35636E6205B0F0BD00008A
:100FB0000038014000100240000801405800024083
:100FC000680000202E2E2F5372632F73746D3332FE
:100FD000663178785F68616C5F6D73702E630000B6
:100FE000AC000020F8B5044690F83A0020283CD127
:100FF000C1B3BAB394F83800012836D0012084F880
:101000003800A162A2850025E563222084F83A0019
:10101000636B17489862636B1648D862636B164817
:101020001863606B134645630846666B2168024689
:101030003046091DFFF766FA206801684168009193
:1010400084F83850C16841F48071C16020684169FA
:1010500041F0010141612068416941F04001416175
:101060000020F8BDFFE70120FBE70220F9E70000C0
:101070000F1400084B140008C51300087047704790
:101080002DE9F843044690F839001F4616460D46F0
:10109000202850D1A5B19EB194F8380001284AD03B
:1010A000012084F838004FF00008C4F83C8021206B
:1010B00084F83900FFF758FBA6848146E68426E0D1
:1010C0000120BDE8F883E08C401EE084A0684B4618
:1010D000B0F5805F4FF000024FF08001204600978E
:1010E00003D000F087FAE8B90DE000F083FAC8B940
:1010F00028882168C0F308004860206908B16D1C89
:1011000005E0AD1C03E0216815F8010B4860E08C98
:101110000028D8D14B46002240212046009700F0FD
:1011200069FA08B10320CCE7202084F8390084F85C
:1011300038800020C5E70220C3E7FEE70822024905
:101140000248FFF74FBF00001000002028000020D9
:1011500030B5174885B0816941F01001816181691E
:1011600001F010010491816941F0200181618169E0
:1011700001F020010491816941F0040181618069DD
:101180000C4D00F004004FF400540490002221465E
:101190002846FFF7E3FA0120CDE900400020029045
:1011A0000220039069462846FFF7F6F905B030BDE6
:1011B0000010024000100140FEE770470907090EC9
:1011C000002806DA00F00F0000F1E02080F8141D7E
:1011D000704700F1E02080F8001470472DE9F047D7
:1011E00008223E493E48FFF7FDFE3C4FA7F11004A0
:1011F0003878AA2851D1F87955284ED137F8010FFF
:1012000040BAFFF719F8DFF8DC804146FEF7E2FF4D
:101210000546788840BAFFF70FF84146FEF7DAFF37
:101220000646B88840BAFFF707F84146FEF7D2FFF6
:10123000DFF8B490DFF8B4A0DFF8B48007464D457E
:101240000CDD29465046FEF7BFFFE06020604545B3
:1012500006DB80F00040E060206001E0E560256092
:101260004D46AE420ADD31465046FEF7ADFF6060A6
:10127000464504DD80F00040606000E06660AF42FB
:101280000ADD39465046FEF79FFFA060474504DD62
:1012900080F00040A06000E0A760164DE068164EA8
:1012A000A84203D33146FEF73DFFE0602068A84224
:1012B00003D33146FEF736FF20606068A84203D3AF
:1012C0003146FEF72FFF6060A068A84203D3314685
:1012D000FEF728FFA060BDE8F087000010000020A6
:1012E000280000200AD7233C0000334300C02344D9
:1012F0000080ED43000080800000B44370477047D9
:1013000010B5FFF76BFFFFF735FABDE81040FFF7A8
:101310009ABD30B58FB001210804CDE9001000243A
:10132000029402250491CDE907504FF4E010099092
:101330006846FFF7E5FB00B1FEE70F20CDE90A059F
:101340004FF48060CDE90C4002210AA80E94FFF70B
:10135000D1FA00B1FEE7FFF777FB4FF47A71B0FBEB
:10136000F1F0FFF75CFD0420FFF74CFD0022114671
:10137000501EFFF78DFA0FB030BD00000D48016818
:1013800041F00101016041680B4A11404160016870
:101390000A4A11400160016821F48021016041681E
:1013A00021F4FE0141604FF41F0181600449C00334
:1013B00008607047001002400000FFF8FFFFF6FED3
:1013C00008ED00E070B5446A2068406994F839106F
:1013D000C0F3C0100025212904D118B1E5842046AE
:1013E00000F046F82068406994F83A10C0F3801085
:1013F000222904D118B1E585204600F02BF8E06BD6
:1014000040F01000E0632046FFF74DFD70BD10B5C1
:101410000146406A09680968890613D40021C1851C
:101420000168CA6822F48072CA6001684A6922F0C1
:1014300001024A6101684A6922F040024A612021A2
:1014400080F83A10FFF71AFE10BD10B5406AFFF79A
:1014500016FE10BD0168CA6822F49072CA60016865
:101460004A6922F001024A61202180F83A1070474F
:101470000168CA6822F0C002CA60202180F83910D1
:10148000704700002DE9F041044600680169E268F8
:1014900021F44051114301612169A0680843616949
:1014A00008432168CA6841F20C639A430243CA6048
:1014B00020684169A26921F44071114341614C499E
:1014C00020686425322688423CD1FFF7D3FA00EB2E
:1014D000C00101EB001061688900B0FBF1F7FFF774
:1014E000C9FA00EBC00101EB00106168B046890049
:1014F000B0FBF1F0B0FBF5F06FF01801484307EBDB
:10150000800106EB0110B0FBF5F000F0F006FFF7EC
:10151000B1FA00EBC00101EB001061688900B0FB7B
:10152000F1F0B0FBF5F006EB0016FFF7A3FA00EBC5
:10153000C00101EB001061688900B0FBF1F7FFF713
:1015400099FA3BE0FFF786FA00EBC00101EB0010CF
:1015500061688900B0FBF1F7FFF77CFA00EBC0018E
:1015600001EB00106168B0468900B0FBF1F0B0FB00
:10157000F5F06FF01801484307EB800106EB01100E
:10158000B0FBF5F000F0F006FFF764FA00EBC001E5
:1015900001EB001061688900B0FBF1F0B0FBF5F0E1
:1015A00006EB0016FFF756FA00EBC00101EB001046
:1015B00061688900B0FBF1F7FFF74CFA00EBC0015E
:1015C00001EB001061688900B0FBF1F0B0FBF5F0B1
:1015D0006FF01801484307EB800108EB0110B0FBE6
:1015E000F5F0216800F00F0030448860BDE8F0811C
:1015F000003801402DE9F041984617460E46044652
:10160000069D1DE0681C1BD02DB1FFF7ADF8A0EBC7
:101610000800A84214D92068C16821F4D071C160C3
:101620002068416921F001014161202084F83900DE
:1016300084F83A00002084F838000320BDE8F081E7
:101640002068006836EA000004D00020B842D9D0F3
:101650000020F3E70120F9E7FEE7FEE702E008C813
:10166000121F08C1002AFAD170477047002001E01C
:1016700001C1121F002AFBD17047000008B5FFF717
:1016800081F8FFF746FEFFF763FD1F48416941F00F
:10169000010141614069002200F001000090114603
:1016A0000E20FFF7F5F80E20FFF7E6F800221146AE
:1016B0000F20FFF7EDF80F20FFF7DEF8144813496D
:1016C0000C2201604FF4E131416000218160C16072
:1016D000C0E904128161C161FFF7E6FB00B1FEE7DA
:1016E000FFF72CFD4FF4FA642046FEF743FF00F0AD
:1016F00013F8084E4FF4005529463046FFF72AF8F4
:101700002046FEF737FFF7E700100240003801409F
:1017100028000020001001400EB515A000680090C0
:1017200014A00068019014A0006802901348FFF70D
:101730008EFB3220FEF71EFF6423022269460F480B
:10174000FFF79EFCAA20FEF715FF6423022201A9E1
:101750000A48FFF795FCAA20FEF70CFF642302223B
:1017600002A90648FFF78CFCFFF7E8FC0EBD00005D
:10177000A5550000A5540000A55200002800002037
:101780000000000000000000010203040607080931
:101790000000000001020304B81700080000002048
:1017A000280000005C160008E01700082800002050
:1017B000C80400006C1600080000000000000000D3
:1017C0000000000000000000000000000000000019
:1017D00001000000100000000000000000A24A0408
:04000005080000ED02
:00000001FF
